:020000040000FA
:060000000A128A110C280F
:10000800FE00030EF7000A08F8000A128A11C72D2D
:100018000A128A110F280A128A11BD260A128A1199
:10002800FB000A128A11BE260A128A11FC00F90185
:10003800FA0183010A128A113E2C83120313310834
:100048008039B6003608BB003108B6003607B7005D
:100058003708C100B01F312832283328411441081D
:100068000319372838284728410A031D3C283D280A
:1000780045280030B1000030B0000030AF0000303B
:10008800AE00B0174F280030B1000030B00000308B
:10009800AF000030AE0035088039B6003608BB0620
:1000A8003508B6003607B7003708C000B41F5D280A
:1000B8005E285F28401440080319632864287328C1
:1000C800400A031D6828692871280030B5000030EF
:1000D800B4000030B3000030B200B4177B28003001
:1000E800B5000030B4000030B3000030B200400862
:1000F80003197F28802885284108031D842885281E
:100108008E280030B1000030B0000030AF00003061
:10011800AE00812B2E08B6003608A00034080A125B
:100128008A113F260A128A11831203132108C70075
:100138002008C6004608B600B701B801B901390859
:10014800BF003808BE003708BD003608BC004708A5
:10015800B600B701B801B9013908C5003808C400AC
:100168003708C3003608C2002F08B6003608A000BA
:1001780033080A128A113F260A128A1183120313BE
:100188002108C7002008C6004608B600B701B80114
:10019800B9013608BC07370803110318013E0319D3
:1001A800D628BD07380803110318013E0319DD28B6
:1001B800BE07390803110318013E0319E428BF07D5
:1001C8004708B600B701B801B9013608C2073708B1
:1001D80003110318013E0319F228C3073808031155
:1001E8000318013E0319F928C40739080311031835
:1001F800013E03190029C5073008B6003608A000DB
:1002080032080A128A113F260A128A11831203132E
:100218002108C7002008C6004608B600B701B80183
:10022800B9013608BC07370803110318013E031942
:100238001E29BD07380803110318013E0319252993
:10024800BE07390803110318013E03192C29BF07FB
:100258004708B600B701B801B9013608C207370820
:1002680003110318013E03193A29C307380803117B
:100278000318013E03194129C4073908031103185B
:10028800013E03194829C5070830B6000310BC0D04
:10029800BD0DBE0DBF0DB60B4A292F08B600360896
:1002A800A00032080A128A113F260A128A11831204
:1002B80003132108C7002008C6004608B6004708EF
:1002C800B700B801B9013608BC073708031103188D
:1002D800013E03197029BD07380803110318013EB0
:1002E80003197729BE07390803110318013E0319BA
:1002F8007E29BF072E08B6003608A00033080A1268
:100308008A113F260A128A11831203132108C70093
:100318002008C6004608B6004708B700B801B9016A
:100328003608BC07370803110318013E03199D2935
:10033800BD07380803110318013E0319A429BE0795
:10034800390803110318013E0319AB29BF07083008
:10035800B6000310BC0DBD0DBE0DBF0DB60BAD290B
:100368002E08B6003608A00032080A128A113F2665
:100378000A128A11831203132108C7002008C60035
:100388004608B6004708B700B801B9013608BC07E7
:10039800370803110318013E0319D329BD0738088C
:1003A80003110318013E0319DA29BE07390803119E
:1003B8000318013E0319E129BF072F08B6003608C4
:1003C800A00034080A128A113F260A128A118312E1
:1003D80003132108C7002008C6004608B6004708CE
:1003E800B700B801B9013608C20737080311031866
:1003F800013E0319002AC307380803110318013EF8
:100408000319072AC407390803110318013E031901
:100418000E2AC5073008B6003608A00033080A12AD
:100428008A113F260A128A11831203132108C70072
:100438002008C6004608B6004708B700B801B90149
:100448003608C207370803110318013E03192D2A7D
:10045800C307380803110318013E0319342AC407D7
:10046800390803110318013E03193B2AC507300850
:10047800B6003608A00034080A128A113F260A126C
:100488008A11831203132108C7002008C6004608F2
:10049800B6004708B700B801B90108300310B60D17
:1004A800B70DB80DB90DFF3E031D522A3608C20715
:1004B800370803110318013E0319632AC3073808D4
:1004C80003110318013E03196A2AC40739080311E6
:1004D8000318013E0319712AC5073C08B6003D08F8
:1004E800B7003E08B8003F08B90018300310B90C2F
:1004F800B80CB70CB60CFF3E031D7A2A3608C207A3
:10050800370803110318013E03198B2AC30738085B
:1005180003110318013E0319922AC407390803116D
:100528000318013E0319992AC5070830B6000310BD
:10053800BC0DBD0DBE0DBF0DB60B9B2A4108400773
:10054800B600B701B70D3608823EC6003708031853
:10055800013EFF3EC700CD2A0130B6000310C20D90
:10056800C30DC40DC50DB60BB22ABF1FBC2ABD2AC8
:10057800BE2A42140130B6000310BC0DBD0DBE0DDD
:10058800BF0DB60BC02AFF30C6070318C70AFF30D5
:10059800C707C41FD02AD12AB02AC001BF1FD52A35
:1005A800D62AF22AFF303C05B600FF303D05B700D9
:1005B800FF303E05B8007F303F05B90039083804E0
:1005C800370436040319E92AEA2AED2AC001C00AC9
:1005D800F22A421CF02AF12AF22AEA2A40080319D0
:1005E800F62AF72A282B0130C207003003180130F9
:1005F800C307003003180130C40700300318013066
:10060800C507451C082B092B282B4208B6004308B0
:10061800B7004408B8004508B9000130BA00390DE0
:10062800B90CB80CB70CB60CBA0B132B3908C500AB
:100638003808C4003708C3003608C2000130C607AE
:100648000318C70A0030C7074708803AFF00803000
:100658007F02031D312BFF304602031C342B352B40
:10066800402B7F3083120313C5008030C400003054
:10067800C3000030C200752B831203134708803A69
:10068800FF0080307F02031D4B2B01304602031808
:100698004E2B4F2B5B2B003083120313C500003009
:1006A800C4000030C3000030C200BB01752B8312A8
:1006B80003134608B6003608C100FF30C205FF30F4
:1006C800C3057F30C4050030C505411C6C2B6D2B5C
:1006D8006E2BC4174108B6000310360CB700370854
:1006E800C5003B08B6003608C5044508B1004408F3
:1006F800B0004308AF004208AE000800831203139D
:10070800A80028080319892B8A2B9E2BA31F8D2B41
:100718008E2B9E2B2009AA002109AB002209AC00D0
:100728002309AD00AA0A0319AB0A0319AC0A031975
:10073800AD0AA62B2308AD002208AC002108AB00A7
:100748002008AA002308220421042004031DAD2B3D
:10075800AE2BB72B0030A3000030A2000030A10060
:100768000030A0003D2C9630A4002408A900C92B15
:100778000130A4002408A90701300310AD0CAC0C0B
:10078800AB0CAA0CFF3E031DC12BFE302D05031D2B
:10079800CE2BCF2BBC2BEB2B0130A4002408A907B0
:1007A8000130AA07003003180130AB0700300318E6
:1007B8000130AC07003003180130AD0701300310D9
:1007C800AD0CAC0CAB0CAA0CFF3E031DE32BFF30A9
:1007D8002D05031DF02BF12BD02BFD2B0130A90289
:1007E8000130A4000310AA0DAB0DAC0DAD0DA40B88
:1007F800F62BAC1B002C012C072C02302902031805
:10080800062C072CF22B29180A2C0B2C132CFF3042
:10081800AA05FF30AB057F30AC05FF30AD050310EE
:10082800A90C2908A400A501A601A70118300310E6
:10083800A40DA50DA60DA70DFF3E031D1B2C240816
:10084800AA042508AB042608AC042708AD04280828
:1008580003192F2C302C352CA31F332C342C352C7A
:10086800AD172D08A3002C08A2002B08A1002A0808
:10087800A00008000530831603138100F8308312A6
:10088800031381008B168B170B178316031388012C
:100898008312031388010A128A11B4260A128A11D4
:1008A80000300A128A1111260A128A1183120313C0
:1008B8002108DD002008DC005C08A0005D08A1001C
:1008C8000030A11BFF30A200A30001300A128A11D8
:1008D80082230A128A11831203132308B5002208FF
:1008E800B4002108B3002008B2003D30B100C73081
:1008F800B000E230AF008230AE000A128A11212027
:100908000A128A11831203133108CB003008CA0077
:100918002F08C9002E08C8000A128A11E2240A12F8
:100928008A11831203134908D9004808D8005908C6
:10093800A1005808A0007C08A3007B08A2000A12A6
:100948008A1168260A128A11831203132108D70014
:100958002008D6006430A6000030A7005708A10080
:100968005608A0000A30A2000030A3000A128A111B
:1009780068260A128A11831203132108A900200885
:10098800A8000A128A115E250A128A11831203131B
:100998002708DB002608DA00033083120313D5008A
:1009A8008A30D4005530D300D30BD82CD40BD82C94
:1009B800D50BD82C542C0A128A110C280310831238
:1009C80003134A0D4B0DCC004C08D2005208031DEE
:1009D800EE2CEF2CF82C0030CB000030CA00003091
:1009E800C9000030C8005D2D4808CC004908CD007A
:1009F8004A08CE004B08CF001F300310CF0CCE0C96
:100A0800CD0CCC0CFF3E031D012D4C08D000500826
:100A1800D100CA17FF30C805FF30C905FF30CA0525
:100A28000030CB059630D202D21F1B2D1C2D362D3F
:100A38005208803A973E0318222D232D242DEF2C9F
:100A480001300310CB0CCA0CC90CC80CFF3E031DA7
:100A5800252D0130CC004C08D207031D342D352D2F
:100A6800242D4D2D20305202031C3B2D3C2D482DAA
:100A7800EF2C0130CC000310C80DC90DCA0DCB0DE9
:100A8800CC0B3F2D0130D2025208031D4C2D4D2DA9
:100A98003D2D51080319512D522D5D2DC809C90945
:100AA800CA09CB09C80A0319C90A0319CA0A0319CA
:100AB800CB0A080083120313AC01A71F642D652D10
:100AC8006C2DA609A709A60A0319A70AAC01AC0A46
:100AD800A91F6F2D702D792DA809A909A80A031936
:100AE800A90A0130AA002A08AC06AD01AE01260801
:100AF80027040319802D812DB82DAB01AB0A8F2D4A
:100B080001300310A60DA70DFF3E031D852D0130F2
:100B1800AA002A08AB07A71F922D932D842D013018
:100B28000310AD0DAE0DFF3E031D942D27082902BD
:100B3800031DA02D26082802031CA32DA42DAB2DD0
:100B48002608A8022708031CA903A9022D140130AE
:100B58000310A70CA60CFF3E031DAC2D0130AB0201
:100B6800031DB72DB82D932D2C080319BC2DBD2DB1
:100B7800C22DAD09AE09AD0A0319AE0A2E08A700A9
:100B88002D08A60008000B1DCA2DCB2DD62DF83038
:100B98008312031381000B110130F9070318FA0AB5
:100BA8000030FA07831203135B08803AF6007A08CC
:100BB800803A7602031DE22D79085A02031CE52DBE
:100BC800E62DEA2D831203138814ED2D83120313E7
:100BD80088107C08F1007B08F0000A30F200003031
:100BE800F3000A128A118F260A128A117A08803AAB
:100BF800F6007108803A7602031D042E7008790207
:100C0800031C072E082E0A2EF901FA0178088A001B
:100C1800770E8300FE0E7E0E090083120313A400D4
:100C28000130A20022089F052408A2000230031008
:100C3800A20DFF3E031D1B2E0310220DA300230847
:100C48009F040D3083120313A300FB30A200A20BF4
:100C58002B2EA30B2B2E831203131F151F19352EB2
:100C6800362E322E1E08A100831603131E08831287
:100C78000313A000080083120313A800A401A50110
:100C88002008A200A3012208A6002308A700281C08
:100C98004E2E4F2E552E2608A4070318A50A2708FE
:100CA800A50701300310A60DA70DFF3E031D562E04
:100CB8000310A80C2808031D622E632E4B2E25084E
:100CC800A1002408A000080083120313A401A501B1
:100CD800201C6F2E702E762E2208A4070318A50A52
:100CE8002308A50701300310A20DA30DFF3E031D25
:100CF800772E01300310A10CA00CFF3E031D7E2EA1
:100D080020082104031D892E8A2E6C2E2508A10097
:100D18002408A0000800F401F501701C942E952EFB
:100D28009B2E7208F4070318F50A7308F5070130BB
:100D38000310F20DF30DFF3E031D9C2E013003102E
:100D4800F10CF00CFF3E031DA32E70087104031D67
:100D5800AE2EAF2E912E7508F1007408F000080031
:100D68004130831203139F00C030831603139F0082
:060D780008000234003403
:02400E007A3FF7
:00000001FF
